:020000040000FA
:020000000828CE
:080008000B1872280B194029A6
:1000100083168501061686160617861706108610A3
:100020000611861187308100831285018601052320
:10003000023085002F23023085002F2308308500F1
:100040002F23003085002F230C3085002F23D8224A
:10005000003085002F23063085002F2310308400C8
:100060008001840A041F302806118611B201E9229A
:100070002830B1228D22F0229C22A522C430A82251
:100080006530A8229F222530A8222223D82248307A
:10009000B1224430A8229F226430A822A2225530E7
:1000A000A822C430A8224530A8221C30B122A522A3
:1000B0002430A8229C224530A822A2223430A82233
:1000C000C430A8229F22BC30B1228D223830B12208
:1000D000DF2201308C001E30AD0088308B003218DA
:1000E0002E286F280E230E23061E7D28861E8628A6
:1000F000061F9328861F9628012B0C18A2288C18FF
:10010000AB280C1999280C1A0C29012B0C18B428AF
:100110008C18C9280C19E9288C19AD290C1A20292A
:100120008C1A6929012B8C1A8629012B8C1A952986
:10013000012B01308C00AC30B122F0223830B122DA
:10014000DF22012B02308C003830B122F0220C303B
:10015000B122DF22012B04308C000C30B122F022BE
:10016000AC30B122DF22012B08308C00D822E222F1
:10017000BA22FF3090009B009D009E00A200A300C9
:100180003530950054309A000615C4225830B122FB
:10019000012B10308C00D822E222BA223530900098
:1001A0005430A300C422C830B1229C22F022043073
:1001B000A822CC30B1220330A822C230A8220330BA
:1001C000A8221830B1221130AC000130A9008615E8
:1001D000012B20308C00D8220830B122E222BA2232
:1001E000C422C830B122A5222430A8229C22BC30CF
:1001F000B1222530A8229F22D430A822F0225330E9
:10020000B100A822103084000830B1220830A400C8
:10021000061586158B16012B2908AA002908093C0A
:10022000031938292908123C0319AD292908093076
:10023000A9022908AE00AE1B3221AE1F2C21012BD2
:100240002C088400FF308000A822AB0AF32205307E
:100250002B020319AD290C29F3222A08013EA9001B
:10026000AC030800FA222A08013EA900AC0A0800E3
:100270008C30B1222A08013EA9002230AC00012BAB
:10028000AD0B032B1E30AD0081010408193C03198E
:10029000572904081A3C03195D2919300402AF00DC
:1002A000AF1B63291A300402AF00AF1F66299C30D0
:1002B000A400B12223308400032B0830A400B12213
:1002C00010308400032B840A8522032B84038922A7
:1002D000032B0008F53C031DA92905302B02031947
:1002E000A929FF308000A822AB0A1030B102FC30EF
:1002F000B1223108A8222408B12205302B02031DA7
:10030000012B033030020319AD29012B0008F53C05
:10031000031DA9293018A92935308000A822F3220D
:1003200006113014B018A429012B0008F53C031D58
:10033000A929B018A92954308000A822F322B014AA
:1003400086113018A429012B05302B020319AD2981
:10035000012B061405230610012B1330A7000330D0
:10036000A8000611861100308B00D822C4226A2210
:100370000830A400B1221030840035300002031987
:10038000D229840A8522A83024020319C829BD294C
:100390000C30A400B122353000020319D229840A9E
:1003A0008522CB292408A5000408A600DC292508FD
:1003B000A400B12226088400840A1A30040203191A
:1003C000F429243004020319F429543000020319DB
:1003D000592AF5300002031DF42985220523DF2266
:1003E000F322A2308000DC29840384030F3004024E
:1003F0000319252A193004020319102A5430000267
:100400000319592AF5300002031D0D2A89220523FC
:10041000DF22F322A2308000F5292419102A252A90
:10042000840A0A308402543000020319592AF53034
:100430000002031D3D2A0430A4022408B122052332
:10044000DF22F322A2308000DC29840A0A308407EC
:10045000543000020319592AF5300002031D3A2ACC
:100460000430A4072408B1220523DF22F322A2309E
:100470008000DC290A3084023F2A0A3084070523E1
:10048000353000020319772AFF308000A8220F3090
:100490008400840A243004020319552AA230000281
:1004A000031D492AF5308000492AD822C4225F2240
:1004B000D729BC30B1229422DF228615812A9330BD
:1004C00027020319662A1030A7076A2A0330A700FB
:1004D0001030A807B830B1229430A8224530A822A5
:1004E0002530A8222808A8222708A8220800BC3006
:1004F000B12294228530A822061506142223061064
:10050000812A1523D8223214012B1030A407FA2295
:1005100008001030A402F3220800D430A822A2223E
:10052000A530A8229F2208000530A822A22245302B
:10053000A8228430A82208003530A82208005430B0
:10054000A82208001430A8220800F430A8220800CD
:100550008F008500051634230F0E85000516342301
:1005600008008F00850005122F230F0E850005124D
:100570002F23080010308400F5308000840A04081E
:10058000243C031DBC2A0800103084000008A82267
:10059000840A04081A3C0319D2220408243C031DCF
:1005A000C62A0800193EAF000C30B1222F080800FF
:1005B000003085002F23013085002F230800A23052
:1005C000A8220800003085002F230F3085002F233C
:1005D0000800003085002F230C3085002F230800F1
:1005E000EF30A8220800013085002F23003085005D
:1005F0002F230800013085002F23043085002F238E
:1006000008000B1009000B11090000308E00343077
:100610008D008E0F092B8D0B092B0800FF308D00EC
:10062000000000008D0B102B080000308F00003000
:100630008E0033308D008F0F1B2B8E0F1B2B8D0BDD
:100640001B2B080000308F0000308E000A308D0018
:100650008F0F282B8E0F282B8D0B282B080086142C
:100660000000861005230800861400008610392338
:0C0670000800F9308D008D0B3B2B0800BA
:00000001FF
